{
  "_format": "hh-sol-artifact-1",
  "contractName": "FileStorage",
  "sourceName": "contracts/FileStorage.sol",
  "abi": [
    {
      "inputs": [],
      "name": "getFiles",
      "outputs": [
        {
          "internalType": "string[]",
          "name": "",
          "type": "string[]"
        }
      ],
      "stateMutability": "view",
      "type": "function"
    },
    {
      "inputs": [
        {
          "internalType": "string",
          "name": "_ipfsHash",
          "type": "string"
        }
      ],
      "name": "storeFileHash",
      "outputs": [],
      "stateMutability": "nonpayable",
      "type": "function"
    },
    {
      "inputs": [
        {
          "internalType": "address",
          "name": "",
          "type": "address"
        },
        {
          "internalType": "uint256",
          "name": "",
          "type": "uint256"
        }
      ],
      "name": "userFiles",
      "outputs": [
        {
          "internalType": "string",
          "name": "",
          "type": "string"
        }
      ],
      "stateMutability": "view",
      "type": "function"
    }
  ],
  "bytecode": "0x6080604052348015600f57600080fd5b50610a4c8061001f6000396000f3fe608060405234801561001057600080fd5b50600436106100415760003560e01c80632da96d7314610046578063718f38a614610064578063fb6cbd0614610094575b600080fd5b61004e6100b0565b60405161005b9190610444565b60405180910390f35b61007e6004803603810190610079919061050e565b6101c5565b60405161008b9190610598565b60405180910390f35b6100ae60048036038101906100a991906106ef565b61027e565b005b60606000803373ffffffffffffffffffffffffffffffffffffffff1673ffffffffffffffffffffffffffffffffffffffff168152602001908152602001600020805480602002602001604051908101604052809291908181526020016000905b828210156101bc57838290600052602060002001805461012f90610767565b80601f016020809104026020016040519081016040528092919081815260200182805461015b90610767565b80156101a85780601f1061017d576101008083540402835291602001916101a8565b820191906000526020600020905b81548152906001019060200180831161018b57829003601f168201915b505050505081526020019060010190610110565b50505050905090565b600060205281600052604060002081815481106101e157600080fd5b906000526020600020016000915091505080546101fd90610767565b80601f016020809104026020016040519081016040528092919081815260200182805461022990610767565b80156102765780601f1061024b57610100808354040283529160200191610276565b820191906000526020600020905b81548152906001019060200180831161025957829003601f168201915b505050505081565b6000803373ffffffffffffffffffffffffffffffffffffffff1673ffffffffffffffffffffffffffffffffffffffff168152602001908152602001600020819080600181540180825580915050600190039060005260206000200160009091909190915090816102ee9190610944565b5050565b600081519050919050565b600082825260208201905092915050565b6000819050602082019050919050565b600081519050919050565b600082825260208201905092915050565b60005b8381101561035857808201518184015260208101905061033d565b60008484015250505050565b6000601f19601f8301169050919050565b60006103808261031e565b61038a8185610329565b935061039a81856020860161033a565b6103a381610364565b840191505092915050565b60006103ba8383610375565b905092915050565b6000602082019050919050565b60006103da826102f2565b6103e481856102fd565b9350836020820285016103f68561030e565b8060005b85811015610432578484038952815161041385826103ae565b945061041e836103c2565b925060208a019950506001810190506103fa565b50829750879550505050505092915050565b6000602082019050818103600083015261045e81846103cf565b905092915050565b6000604051905090565b600080fd5b600080fd5b600073ffffffffffffffffffffffffffffffffffffffff82169050919050565b60006104a58261047a565b9050919050565b6104b58161049a565b81146104c057600080fd5b50565b6000813590506104d2816104ac565b92915050565b6000819050919050565b6104eb816104d8565b81146104f657600080fd5b50565b600081359050610508816104e2565b92915050565b6000806040838503121561052557610524610470565b5b6000610533858286016104c3565b9250506020610544858286016104f9565b9150509250929050565b600082825260208201905092915050565b600061056a8261031e565b610574818561054e565b935061058481856020860161033a565b61058d81610364565b840191505092915050565b600060208201905081810360008301526105b2818461055f565b905092915050565b600080fd5b600080fd5b7f4e487b7100000000000000000000000000000000000000000000000000000000600052604160045260246000fd5b6105fc82610364565b810181811067ffffffffffffffff8211171561061b5761061a6105c4565b5b80604052505050565b600061062e610466565b905061063a82826105f3565b919050565b600067ffffffffffffffff82111561065a576106596105c4565b5b61066382610364565b9050602081019050919050565b82818337600083830152505050565b600061069261068d8461063f565b610624565b9050828152602081018484840111156106ae576106ad6105bf565b5b6106b9848285610670565b509392505050565b600082601f8301126106d6576106d56105ba565b5b81356106e684826020860161067f565b91505092915050565b60006020828403121561070557610704610470565b5b600082013567ffffffffffffffff81111561072357610722610475565b5b61072f848285016106c1565b91505092915050565b7f4e487b7100000000000000000000000000000000000000000000000000000000600052602260045260246000fd5b6000600282049050600182168061077f57607f821691505b60208210810361079257610791610738565b5b50919050565b60008190508160005260206000209050919050565b60006020601f8301049050919050565b600082821b905092915050565b6000600883026107fa7fffffffffffffffffffffffffffffffffffffffffffffffffffffffffffffffff826107bd565b61080486836107bd565b95508019841693508086168417925050509392505050565b6000819050919050565b600061084161083c610837846104d8565b61081c565b6104d8565b9050919050565b6000819050919050565b61085b83610826565b61086f61086782610848565b8484546107ca565b825550505050565b600090565b610884610877565b61088f818484610852565b505050565b5b818110156108b3576108a860008261087c565b600181019050610895565b5050565b601f8211156108f8576108c981610798565b6108d2846107ad565b810160208510156108e1578190505b6108f56108ed856107ad565b830182610894565b50505b505050565b600082821c905092915050565b600061091b600019846008026108fd565b1980831691505092915050565b6000610934838361090a565b9150826002028217905092915050565b61094d8261031e565b67ffffffffffffffff811115610966576109656105c4565b5b6109708254610767565b61097b8282856108b7565b600060209050601f8311600181146109ae576000841561099c578287015190505b6109a68582610928565b865550610a0e565b601f1984166109bc86610798565b60005b828110156109e4578489015182556001820191506020850194506020810190506109bf565b86831015610a0157848901516109fd601f89168261090a565b8355505b6001600288020188555050505b50505050505056fea26469706673582212207d636f2cd6ee28f1628a8301a4cc2d62d0b7ef32463f00b417a0edb2a1f53d7564736f6c634300081c0033",
  "linkReferences": {},
  "deployedLinkReferences": {}
}